{
  "_format": "hh-sol-artifact-1",
  "contractName": "BlockPay",
  "sourceName": "contracts/AvalanchePay.sol",
  "abi": [
    {
      "anonymous": false,
      "inputs": [
        {
          "indexed": true,
          "internalType": "address",
          "name": "from",
          "type": "address"
        },
        {
          "indexed": true,
          "internalType": "address",
          "name": "to",
          "type": "address"
        },
        {
          "indexed": false,
          "internalType": "uint256",
          "name": "amount",
          "type": "uint256"
        }
      ],
      "name": "PaymentProcessed",
      "type": "event"
    },
    {
      "inputs": [],
      "name": "getAllTransactions",
      "outputs": [
        {
          "components": [
            {
              "internalType": "address",
              "name": "from",
              "type": "address"
            },
            {
              "internalType": "address",
              "name": "to",
              "type": "address"
            },
            {
              "internalType": "uint256",
              "name": "amount",
              "type": "uint256"
            },
            {
              "internalType": "uint256",
              "name": "timestamp",
              "type": "uint256"
            }
          ],
          "internalType": "struct BlockPay.Transaction[]",
          "name": "",
          "type": "tuple[]"
        }
      ],
      "stateMutability": "view",
      "type": "function"
    },
    {
      "inputs": [],
      "name": "getBalance",
      "outputs": [
        {
          "internalType": "uint256",
          "name": "",
          "type": "uint256"
        }
      ],
      "stateMutability": "view",
      "type": "function"
    },
    {
      "inputs": [
        {
          "internalType": "address payable",
          "name": "_to",
          "type": "address"
        }
      ],
      "name": "pay",
      "outputs": [],
      "stateMutability": "payable",
      "type": "function"
    },
    {
      "inputs": [
        {
          "internalType": "uint256",
          "name": "",
          "type": "uint256"
        }
      ],
      "name": "transactions",
      "outputs": [
        {
          "internalType": "address",
          "name": "from",
          "type": "address"
        },
        {
          "internalType": "address",
          "name": "to",
          "type": "address"
        },
        {
          "internalType": "uint256",
          "name": "amount",
          "type": "uint256"
        },
        {
          "internalType": "uint256",
          "name": "timestamp",
          "type": "uint256"
        }
      ],
      "stateMutability": "view",
      "type": "function"
    },
    {
      "stateMutability": "payable",
      "type": "receive"
    }
  ],
  "bytecode": "0x608060405234801561001057600080fd5b5061083d806100206000396000f3fe6080604052600436106100435760003560e01c80630c11dedd1461004f57806312065fe01461006b57806327506f53146100965780639ace38c2146100c15761004a565b3661004a57005b600080fd5b610069600480360381019061006491906104e0565b610101565b005b34801561007757600080fd5b5061008061030f565b60405161008d9190610726565b60405180910390f35b3480156100a257600080fd5b506100ab610317565b6040516100b891906106e4565b60405180910390f35b3480156100cd57600080fd5b506100e860048036038101906100e39190610509565b610436565b6040516100f8949392919061069f565b60405180910390f35b60003411610144576040517f08c379a000000000000000000000000000000000000000000000000000000000815260040161013b90610706565b60405180910390fd5b8073ffffffffffffffffffffffffffffffffffffffff166108fc349081150290604051600060405180830381858888f1935050505015801561018a573d6000803e3d6000fd5b50600060405180608001604052803373ffffffffffffffffffffffffffffffffffffffff1681526020018373ffffffffffffffffffffffffffffffffffffffff16815260200134815260200142815250908060018154018082558091505060019003906000526020600020906004020160009091909190915060008201518160000160006101000a81548173ffffffffffffffffffffffffffffffffffffffff021916908373ffffffffffffffffffffffffffffffffffffffff16021790555060208201518160010160006101000a81548173ffffffffffffffffffffffffffffffffffffffff021916908373ffffffffffffffffffffffffffffffffffffffff160217905550604082015181600201556060820151816003015550508073ffffffffffffffffffffffffffffffffffffffff163373ffffffffffffffffffffffffffffffffffffffff167f0538ab32a957d2b55d0ec70a4029e73fdf19f500832839b1d7bafcfbca2a5630346040516103049190610726565b60405180910390a350565b600047905090565b60606000805480602002602001604051908101604052809291908181526020016000905b8282101561042d57838290600052602060002090600402016040518060800160405290816000820160009054906101000a900473ffffffffffffffffffffffffffffffffffffffff1673ffffffffffffffffffffffffffffffffffffffff1673ffffffffffffffffffffffffffffffffffffffff1681526020016001820160009054906101000a900473ffffffffffffffffffffffffffffffffffffffff1673ffffffffffffffffffffffffffffffffffffffff1673ffffffffffffffffffffffffffffffffffffffff168152602001600282015481526020016003820154815250508152602001906001019061033b565b50505050905090565b6000818154811061044657600080fd5b90600052602060002090600402016000915090508060000160009054906101000a900473ffffffffffffffffffffffffffffffffffffffff16908060010160009054906101000a900473ffffffffffffffffffffffffffffffffffffffff16908060020154908060030154905084565b6000813590506104c5816107d9565b92915050565b6000813590506104da816107f0565b92915050565b6000602082840312156104f257600080fd5b6000610500848285016104b6565b91505092915050565b60006020828403121561051b57600080fd5b6000610529848285016104cb565b91505092915050565b600061053e838361062c565b60808301905092915050565b6105538161078b565b82525050565b6105628161078b565b82525050565b600061057382610751565b61057d8185610769565b935061058883610741565b8060005b838110156105b95781516105a08882610532565b97506105ab8361075c565b92505060018101905061058c565b5085935050505092915050565b60006105d360288361077a565b91507f5061796d656e7420616d6f756e74206d7573742062652067726561746572207460008301527f68616e207a65726f0000000000000000000000000000000000000000000000006020830152604082019050919050565b608082016000820151610642600085018261054a565b506020820151610655602085018261054a565b5060408201516106686040850182610681565b50606082015161067b6060850182610681565b50505050565b61068a816107cf565b82525050565b610699816107cf565b82525050565b60006080820190506106b46000830187610559565b6106c16020830186610559565b6106ce6040830185610690565b6106db6060830184610690565b95945050505050565b600060208201905081810360008301526106fe8184610568565b905092915050565b6000602082019050818103600083015261071f816105c6565b9050919050565b600060208201905061073b6000830184610690565b92915050565b6000819050602082019050919050565b600081519050919050565b6000602082019050919050565b600082825260208201905092915050565b600082825260208201905092915050565b6000610796826107af565b9050919050565b60006107a8826107af565b9050919050565b600073ffffffffffffffffffffffffffffffffffffffff82169050919050565b6000819050919050565b6107e28161079d565b81146107ed57600080fd5b50565b6107f9816107cf565b811461080457600080fd5b5056fea264697066735822122014e51a1947c3ebd79c14f0a2a184122c62b8b4f1ce54fd7bbd2c0552843d130764736f6c63430008000033",
  "linkReferences": {},
  "deployedLinkReferences": {}
}